S01300004443455F503036435F30332E737265632B
S11300000C9434000C943E000C943E000C943E007E
S11300100C943E000C943E000C943E000C943E0064
S11300200C943E000C943E000C943E000C943E0054
S11300300C943E000C943E000C943E000C943E0044
S11300400C943E000C943E000C943E000C943E0034
S11300500C943E000C943E000C943E000C943E0024
S11300600C943E000C943E0011241FBECFEFD8E048
S1130070DEBFCDBF0E946A000C947B000C9400008C
S113008080E480937C0087EC80937A000895ECE709
S1130090F0E090818F70982B9083EAE7F0E0808104
S11300A080648083808184FFFDCFEAE7F0E0808173
S11300B08061808380917800909179000895559AA9
S11300C0089516BC84B5896A84BD089585B5816098
S11300D085BD08950E9440000E945F000E94610057
S11300E00E94660081E00E94470096958795969548
S10D00F0879588BDF7CFF894FFCF81
S9030000FC
