S01300004443455F503035425F30332E737265632D
S11300000C9434000C9449000C9449000C9449005D
S11300100C9449000C9449000C9449000C94490038
S11300200C9449000C9449000C9449000C94490028
S11300300C9449000C9449000C9449000C94490018
S11300400C9449000C9449000C9449000C94490008
S11300500C9449000C9449000C9449000C944900F8
S11300600C9449000C94490011241FBECFEFD8E032
S1130070DEBFCDBF11E0A0E0B1E0EEE7F2E002C0E8
S113008005900D92AE35B107D9F70E946D000C941E
S11300903D010C94000080E480937C008FEC8093FD
S11300A07A000895ACE7B0E01C92EAE7F0E0108231
S11300B08F7080648C9387E88083808180648083E0
S11300C0808184FFFDCFEAE7F0E080818061808356
S11300D080917800909179000895CF93DF9300D0B8
S11300E000D01F92CDB7DEB784B1816284B985B1E7
S11300F08E7D85B952985A9A0E944B0087E690E00B
S11301000E94E8008CE191E00E94040100EC10E000
S11301100F2EF6ECAF2EB12CF02DF8018081882340
S1130120E4F7F501F08080E091E00E940401F1E33E
S1130130FF1621F082E3F816F9F03CC080E00E943B
S113014052006894FF24F3F8C12CD12C80E00E9463
S11301505200C80ED91EFA94F110F8CF4AE0BE013D
S11301606F5F7F4FC601969587959695879596956F
S113017087950E94130123C081E00E945200689475
S1130180FF24F3F8C12CD12C81E00E945200C80E48
S1130190D91EFA94F110F8CF4AE0BE016F5F7F4F89
S11301A0C6019695879596958795969587950E940D
S11301B0130105C019828DE091E00E940401CE0173
S11301C001960E94040189E191E00E940401A5CFF7
S11301D09093C5008093C400E0ECF0E080818D7FB3
S11301E08083E1ECF0E0808188618083E2ECF0E0E0
S11301F08081866080830895E0ECF0E0908195FF33
S1130200FDCF8093C6000895CF93DF93EC018881DE
S1130210882331F021960E94FC0089918111FBCF43
S1130220DF91CF910895BB27FB015527AA27880F9B
S1130230991FAA1FA41710F0A41B83955051B9F756
S1130240A05DAA3308F0A95DA193009779F7B111D5
S1130250B1931192CB010C942D01DC01FC01672FA9
S113026071917723E1F7329704C07C916D93708389
S11102706291AE17BF07C8F30895F894FFCF4C
S113027E0A0A0D52656164696E673A20000D577261
S113028E6F6E67206B657921000A0A0D312E2D4D94
S113029E656173757265206F6620746865204C44C1
S11302AE520A0D322E2D4D656173757265206F667F
S11302BE2074686520706F74656E74696F6D6574F3
S11102CE65720A0D4F7074696F6E3A2000005D
S9030000FC
