S01300004443455F503036425F30312E737265632E
S11300000C9434000C9446000C9446000C94460066
S11300100C9446000C9446000C9446000C94460044
S11300200C9446000C9446000C9446000C94650015
S11300300C9446000C9446000C9446000C94460024
S11300400C9446000C9446000C9446000C94460014
S11300500C9446000C948C000C9446000C944600BE
S11300600C9446000C94460011241FBECFEFD8E038
S1130070DEBFCDBF21E0A0E0B1E001C01D92A230FF
S1130080B207E1F70E94BC000C94F1000C9400004C
S113009080E480937C0087EC80937A0008958F70CD
S11300A0806480937C00EAE7F0E080818064808350
S11300B00895EAE7F0E08081886080830895EAE7A4
S11300C0F0E08081877F808308951F920F920FB69E
S11300D00F9211242F933F934F935F936F937F93CA
S11300E08F939F93AF93BF93EF93FF930E94590015
S11300F081E00E944F00FF91EF91BF91AF919F91DA
S11301008F917F916F915F914F913F912F910F90BC
S11301100FBE0F901F9018951F920F920FB60F925B
S113012011242F933F934F935F936F937F938F93F8
S11301309F93AF93BF93EF93FF930E945F008091CF
S11301407800909179009093010180930001FF91D0
S1130150EF91BF91AF919F918F917F916F915F913B
S11301604F913F912F910F900FBE0F901F901895B4
S113017084B1826284B908950E94B8000E94480044
S11301800E94D40084E89EE10E94E2000E94EB00F9
S1130190789480910001909101018115924010F0B2
S11301A02D9AF7CF2D98F5CFE0E8F0E080818064B8
S11301B08083E1E8F0E080818860808380818560CD
S11301C08083089510928500109284009093890092
S11301D0809388000895EFE6F0E080818260808358
S10901E00895F894FFCF1E
S9030000FC
