:100000000C94B7000C94D4000C94D4000C94D4003D
:100010000C94D4000C94D4000C94D4000C94D40010
:100020000C94D4000C94D4000C949B010C94D90132
:100030000C94D4000C94D4000C94D4000C94D400F0
:100040000C94D4000C94D4000C94D4000C94D400E0
:100050000C94D4000C94D4000C94D4000C94D400D0
:100060000C94D4000C94D4000C94D4000C94D400C0
:100070000C94D4000C94D4000C94D4000C94D400B0
:100080000C94D4000C94D4000C94D4000C94D400A0
:100090000C94D4000C94D4000C94D4000C94D40090
:1000A0000C94D4000C94D4000C94D40048656C6C6F
:1000B0006F20776F726C640A0D000001000051011F
:1000C00012000200000E0143000300000A010401B7
:1000D000030904F6001202030904EE0006030309F3
:1000E00004E4000808033400310030000000060377
:1000F0004D003200000012034A002E00200046008E
:10010000690065006E00650000000403090409022F
:100110004300020100C03209040000010202010094
:100120000524001001052401010104240206052410
:100130000600010705820310004009040100020ABD
:10014000000000070503024000000705840240008C
:10015000001201000202000010C0167A0400010122
:100160000203010001C11201803601813600112411
:100170001FBECFEFDAE0DEBFCDBF11E0A0E0B1E0FF
:10018000E0EBF7E002C005900D92A830B107D9F777
:1001900021E0A8E0B1E001C01D92AC30B207E1F768
:1001A0000E94D6000C94D6030C9400000E94F70025
:1001B0000E9410018823E1F38CEA90E00E945F0323
:1001C0000E9431018823E1F30E941301C82F0E948D
:1001D000400189E00E9440018C2F90E00E947B0347
:1001E0008AE00E9440018DE00E944001E9CF81E059
:1001F0008093D70080EA8093D80082E189BD09B45A
:1002000000FEFDCF80E98093D8001092E0001092AC
:100210000B01109208018CE08093E200789408951D
:1002200080910B0108959FB7F89480910B01811183
:1002300003C09FBF8FEF089583E08093E900809112
:10024000E80085FD03C09FBF8FEF08958091F10006
:100250002091E80025FD03C02BE62093E8009FBF16
:1002600008959FB7F89480910B01882331F083E0C3
:100270008093E9008091F20001C080E09FBF089563
:10028000CF93DF9390910B01992309F44CC09FB752
:10029000F89424E02093E90020910901222349F0F9
:1002A0002091E80025FD03C09FBF8FEF41C0109251
:1002B00009013091E400375E2091E80025FD24C05B
:1002C0009FBF9091E400391781F090910B01992321
:1002D00061F1A9EEB0E044E0E8EEF0E0C4EED0E079
:1002E0000DC09FBF9881391305C081E0809309013B
:1002F0008FEF1EC090910B019923C9F09FB7F8941E
:100300004C93208125FFEDCF8093F1008091E80090
:1003100085FD03C08AE38093E80085E080930A01AD
:100320009FBF80E005C08FEF03C08FEF01C08FEF4C
:10033000DF91CF9108951F920F920FB60F92112463
:100340008F939F93EF93FF93E1EEF0E08081108213
:1003500083FF11C01092E90091E09093EB0010929E
:10036000EC0092E19093ED0098E09093F0001092F1
:100370000B011092080182FF13C080910B018823AA
:1003800079F080910A01882359F0815080930A0105
:10039000811106C084E08093E9008AE38093E8003D
:1003A000FF91EF919F918F910F900FBE0F901F9033
:1003B00018951F920F920FB60F9211240F931F934F
:1003C0002F933F934F935F936F937F938F939F935D
:1003D000AF93BF93CF93DF93EF93FF931092E90016
:1003E0008091E80083FF4FC1E1EFF0E0A0818081C0
:1003F0002081908130E0392B4081908150E0BA011A
:10040000792BC081D08192EF9093E800863009F07B
:1004100059C004C081E28093EB003CC14AEB50E03C
:1004200004EE10E0CA01FA01A591B4912A173B0726
:1004300009F5FA013296A591B4916A177B07D1F4B8
:10044000FA01349645915491FC01369624918C2FF3
:1004500090E09D2B8F3F910519F010F08FEF90E009
:10046000821708F4282FA8EEB0E070E16EEFC1EF1C
:10047000D0E006C0495F5F4F4017510799F6CACFD9
:100480008C91982F9570E1F382FD04C1322F2131B8
:1004900008F0372F332309F4FAC0FA01832F94911F
:1004A0009883815031968111FACF8FEF830F90E0BE
:1004B0000196480F591F231B6C932111E1CF303156
:1004C000F9F2E8C0853061F48EEF8093E800E8EE41
:1004D000F0E0808180FFFDCF20682093E300DAC048
:1004E000893009F035C0A111CEC020930B011092C4
:1004F000080110920A018EEF8093E80081E023E664
:1005000031E0C9EED0E0ABEEB0E00CEE10E06DEE05
:1005100070E08883A9014F5F5F4FF90194919C932C
:10052000992361F0FA014491F8014083F901329670
:1005300094912D5F3F4FFB01908301C09A018F5F23
:10054000853039F7EAEEF0E08EE180831082A2C0B8
:10055000883081F4A03809F096C0E8EEF0E08081A0
:1005600080FFFDCF80910B018093F1008EEF80938F
:10057000E80090C08132B9F4A13A09F084C0E8EEF5
:10058000F0E0808180FFFDCFE0E0F1E027E031E0A6
:10059000A1EFB0E081918C932E173F07D9F78EEF32
:1005A0008093E80077C08032D1F4A13209F06BC0AB
:1005B000E8EEF0E0808182FFFDCFE0E0F1E027E0AF
:1005C00031E0A1EFB0E08C9181932E173F07D9F76E
:1005D000E8EEF0E08BEF80838EEF80835BC08232A9
:1005E00071F4A13209F04FC020930801E8EEF0E069
:1005F000808180FFFDCF8EEF8093E8004BC081119A
:100600001AC0E8EEF0E0808180FFFDCFA23851F4FF
:10061000E9EEF0E060838091EB0085FB882780F9AC
:10062000108201C080E0E1EFF0E0808310828EEF65
:100630008093E8002FC0982F9D7F913021F5A23044
:1006400011F5232B01F5462F4F779FEF940F943030
:10065000D0F49EEF9093E8004093E900833021F4BA
:1006600081E28093EB0016C089E18093EB0081E08A
:1006700090E002C0880F991F4A95E2F7EAEEF0E099
:100680008083108207C081E28093EB0003C06C93EB
:100690002111F6CEFF91EF91DF91CF91BF91AF91F4
:1006A0009F918F917F916F915F914F913F912F918A
:1006B0001F910F910F900FBE0F901F9018950F93E1
:1006C0001F93CF938C010F5F1F4FFC01C491CC236C
:1006D00071F0CA3019F48DE00E9440018C2F0E9405
:1006E0004001F801C4910F5F1F4FC111F2CFCF91AC
:1006F0001F910F910895EF92FF920F931F93CF9345
:10070000DF9300D000D000D0CDB7DEB78E010F5FF1
:100710001F4F26E0F80111922A95E9F74AE0B80147
:100720000E94AC037E01F6E0EF0EF11CF80181910E
:100730008F0181110E9440010E151F05B9F7269601
:100740000FB6F894DEBF0FBECDBFDF91CF911F91E2
:100750000F91FF90EF900895BB27FB015527AA2723
:10076000880F991FAA1FA41710F0A41B839550513E
:10077000B9F7A05DAA3308F0A95DA193009779F7B6
:10078000B111B1931192CB010C94C603DC01FC01B1
:10079000672F71917723E1F7329704C07C916D93B5
:1007A00070836291AE17BF07C8F30895F894FFCF26
:0807B00000E100000000080058
:00000001FF
