:100000000C9456000C946B000C946B000C946B00D9
:100010000C946B000C946B000C946B000C946B00B4
:100020000C946B000C946B000C946B000C946B00A4
:100030000C946B000C946B000C946B000C946B0094
:100040000C946B000C946B000C946B000C946B0084
:100050000C946B000C9487000C946B000C946B0058
:100060000C946B000C946B000C946B000C946B0064
:100070000C946B000C946B000C946B000C946B0054
:100080000C946B000C946B000C946B000C946B0044
:100090000C946B000C946B000C946B000C946B0034
:1000A0000C946B000C946B000C946B0011241FBE1D
:1000B000CFEFDAE0DEBFCDBF11E0A0E0B1E0EAEDC6
:1000C000F5E002C005900D92A630B107D9F70E9465
:1000D0006D000C94EB020C940000CF93DF9300D0E2
:1000E00000D000D0CDB7DEB786E0E0E0F1E0DE0181
:1000F000119601900D928A95E1F723E040E050E0DF
:1001000066E173E4CE0101960E941201FFCF1F92B7
:100110000F920FB60F9211248F939F9395B184E0A5
:10012000892785B99F918F910F900FBE0F901F90D7
:100130001895229A94B5926094BD87BD603471057C
:10014000C1F038F46130710561F06830710569F013
:100150001CC0611581E0780781F06115744089F059
:1001600014C085B5816085BD089585B5826085BD63
:10017000089585B5836085BD089585B5846085BD86
:10018000089585B5856085BD089585B5816085BD77
:100190000895EEE6F0E08081826080830895EEE6C7
:1001A000F0E080818D7F808308959C0140E050E0E5
:1001B00060E970ED83E090E00E94AA02215027BD23
:1001C0000895E1E8F0E080818860808310928900E2
:1001D0001092880080818560808308959B01AC0126
:1001E00060E070E08AE794E40E94B8019B01AC01F2
:1001F00060E074E284E796E40E94B80120E030E019
:1002000040E85FE30E944B010E942A02709389003C
:1002100060938800B19A1092850010928400B19B7F
:10022000FECF0895BF92CF92DF92EF92FF920F938D
:100230001F93CF93DF93B82EC92F6A017B01D22F72
:1002400060E470E080E00E9499000E94E1000E945A
:10025000CF007894DD2391F00B2D1C2FC0E0F80126
:10026000819191918F010E94D5000E94C900C70120
:10027000B6010E94EE00CF5FDC13F1CF0E94CF00E9
:10028000F894DF91CF911F910F91FF90EF90DF9045
:10029000CF90BF9008955058BB27AA270E946301B2
:1002A0000C9470020E94620238F00E94690220F0F1
:1002B00039F49F3F19F426F40C945F020EF4E09594
:1002C000E7FB0C945902E92F0E94810258F3BA17F8
:1002D000620773078407950720F079F4A6F50C945C
:1002E000A3020EF4E0950B2EBA2FA02D0B01B9013D
:1002F00090010C01CA01A0011124FF27591B99F09C
:10030000593F50F4503E68F11A16F040A22F232FA7
:10031000342F4427585FF3CF469537952795A795F7
:10032000F0405395C9F77EF41F16BA0B620B730B9E
:10033000840BBAF09150A1F0FF0FBB1F661F771F0F
:10034000881FC2F70EC0BA0F621F731F841F48F4C4
:10035000879577956795B795F7959E3F08F0B0CF4D
:100360009395880F08F09927EE0F97958795089534
:100370000E94CC010C9470020E94690258F00E9405
:10038000620240F029F45F3F29F00C9459025111A8
:100390000C94A4020C945F020E94810268F39923DA
:1003A000B1F3552391F3951B550BBB27AA27621771
:1003B0007307840738F09F5F5F4F220F331F441F7E
:1003C000AA1FA9F335D00E2E3AF0E0E832D09150B2
:1003D0005040E695001CCAF72BD0FE2F29D0660F9F
:1003E000771F881FBB1F261737074807AB07B0E8E2
:1003F00009F0BB0B802DBF01FF2793585F4F3AF0E8
:100400009E3F510578F00C9459020C94A4025F3F72
:10041000E4F3983ED4F3869577956795B795F7956D
:100420009F5FC9F7880F911D9695879597F9089555
:10043000E1E0660F771F881FBB1F621773078407F1
:10044000BA0720F0621B730B840BBA0BEE1F88F700
:10045000E09508950E94890288F09F5798F0B92F7F
:100460009927B751B0F0E1F0660F771F881F991FE9
:100470001AF0BA95C9F714C0B13091F00E94A302E6
:10048000B1E008950C94A302672F782F8827B85FF6
:1004900039F0B93FCCF3869577956795B395D9F741
:1004A0003EF490958095709561957F4F8F4F9F4F4B
:1004B000089597F99F6780E870E060E008959FEFE6
:1004C00080EC089500240A941616170618060906EB
:1004D000089500240A9412161306140605060895BA
:1004E000092E0394000C11F4882352F0BB0F40F442
:1004F000BF2B11F460FF04C06F5F7F4F8F4F9F4F82
:10050000089557FD9058440F551F59F05F3F71F003
:100510004795880F97FB991F61F09F3F79F087956A
:100520000895121613061406551FF2CF4695F1DFF3
:1005300008C0161617061806991FF1CF8695710583
:10054000610508940895E894BB2766277727CB01B7
:1005500097F90895052E97FB1EF400940E94C1029E
:1005600057FD07D00E94C90207FC03D04EF40C943B
:10057000C10250954095309521953F4F4F4F5F4FA9
:10058000089590958095709561957F4F8F4F9F4FFF
:100590000895A1E21A2EAA1BBB1BFD010DC0AA1FC4
:1005A000BB1FEE1FFF1FA217B307E407F50720F0DC
:1005B000A21BB30BE40BF50B661F771F881F991F57
:1005C0001A9469F760957095809590959B01AC01A0
:0A05D000BD01CF010895F894FFCF9C
:0605DA004A0172018801D4
:00000001FF
