:100000000C9434000C9448000C9446000C94460068
:100010000C9446000C9446000C9446000C94460048
:100020000C9446000C9446000C9446000C94460038
:100030000C9446000C9446000C9446000C94460028
:100040000C9446000C9446000C9446000C94460018
:100050000C9446000C9446000C9446000C94460008
:100060000C9446000C94460011241FBECFEFD8E03C
:10007000DEBFCDBF21E0A0E0B1E001C01D92A23003
:10008000B207E1F70E9458000C9431010C94000073
:100090001F920F920FB60F9211248F93809100013F
:1000A000809301018F910F900FBE0F901F901895B4
:1000B0001092010181E08093000194B1916294B9A2
:1000C00095B19E7D95B952985A9AE9E6F0E09081F3
:1000D00092609083E89A90E490937C0097E99093E3
:1000E0007A00789485B92FEF35EA9EE021503040B0
:1000F0009040E1F700C0000015B82FEF35EA9EE010
:10010000215030409040E1F700C0000085B92FEF4A
:1001100035EA9EE0215030409040E1F700C00000F9
:1001200015B82FEF35EA9EE0215030409040E1F7BE
:1001300000C0000085B92FEF35EA8EE02150304035
:100140008040E1F700C00000ACE7B0E0EAE7F0E093
:10015000C8E7D0E091E080910101882319F0813057
:10016000E1F04CC02D9AF8948C91807F81608C9343
:10017000808180648083808184FFFDCF8081806165
:1001800080837894288139812C32314010F0289A6C
:1001900001C0289890930001DECFF8948C91807F65
:1001A0008C93808180648083808184FFFDCF8081F7
:1001B000806180837894288139812935324018F410
:1001C000289A2D9818C02D9AF8948C91807F816080
:1001D0008C93808180648083808184FFFDCF8081C7
:1001E000806180837894288139812C32314010F0ED
:1001F000289A01C0289810920001ADCF95B92FEF31
:1002000035EA8EE0215030408040E1F700C0000028
:1002100015B82FEF35EA8EE0215030408040E1F7ED
:1002200000C0000095B92FEF35EA8EE02150304034
:100230008040E1F700C0000015B82FEF35EA8EE0EE
:10024000215030408040E1F700C0000095B92FEF09
:1002500035EA8EE0215030408040E1F700C00000D8
:060260007ACFF894FFCFF5
:00000001FF
