:100000000C9456000C9460000C9460000C946000FA
:100010000C9460000C9460000C9460000C946000E0
:100020000C9460000C9460000C9460000C946000D0
:100030000C9460000C9460000C9460000C946000C0
:100040000C9460000C9460000C9460000C946000B0
:100050000C9460000C9460000C9460000C946000A0
:100060000C9460000C9460000C9460000C94600090
:100070000C9460000C9460000C9460000C94600080
:100080000C9460000C9460000C9460000C94600070
:100090000C9460000C9460000C9460000C94600060
:1000A0000C9460000C9460000C94600011241FBE3E
:1000B000CFEFDAE0DEBFCDBF0E9462000C943E01BC
:1000C0000C9400000E94BE008FEF0E941E012FEFD3
:1000D00087EA91E6215080409040E1F700C000009F
:1000E0008FEF0E942B012FEF87EA91E6215080408D
:1000F0009040E1F700C0000061E08FEF0E94E40053
:100100002FEF87EA91E6215080409040E1F700C050
:10011000000060E08FEF0E94E4002FEF87EA91E695
:10012000215080409040E1F700C0000061E08FEF77
:100130000E9401012FEF87EA91E621508040904014
:10014000E1F700C0000060E08FEF0E9401012FEF97
:1001500087EA91E6215080409040E1F700C000001E
:100160000E943801FFCF882319F0813021F00895D3
:100170005E9A769A08955E98769808953E9A8AB126
:10018000806C8AB96E9A1092BF001092BE00E0ECAB
:10019000F0E0808182648083E2ECF0E0808189601D
:1001A0008083E3ECF0E0808181608083E1ECF0E02B
:1001B0008081876080838FEF8093CF001092D20080
:1001C00081E00E94B3000895CF93C82F662369F0A1
:1001D0006130A9F481E00E94B3008C2F8695C09510
:1001E000C093CF008093D2000AC080E00E94B30089
:1001F0008C2F869580958093CF00C093D200CF91AD
:100200000895CF93C82F662369F06130A9F481E087
:100210000E94B3008C2F869580958093CF00C09369
:10022000D2000AC080E00E94B3008C2F8695C09552
:10023000C093CF008093D200CF910895CF93C82F61
:1002400081E00E94B3008C2F80958093CF00C093F3
:10025000D200CF910895CF93C82F80E00E94B300C1
:100260008C2F80958093CF00C093D200CF910895BA
:100270008FEF8093CF001092D2000895F894FFCFB3
:00000001FF
