S01A0000524F424F545F544553545F4F50544943414C2E737265637A
S11300000C9411010C942E010C942E010C942E01CD
S11300100C942E010C942E010C942E010C942E01A0
S11300200C942E010C942E010C9464020C94A202E4
S11300300C942E010C942E010C942E010C942E0180
S11300400C942E010C942E010C942E010C942E0170
S11300500C942E010C9475040C942E010C942E0116
S11300600C942E010C942E010C942E010C942E0150
S11300700C942E010C942E010C942E010C942E0140
S11300800C942E010C942E010C942E010C942E0130
S11300900C942E010C942E010C942E010C942E0120
S11300A00C942E010C942E010C942E010A0D302E6A
S11300B02D4D656173757265206F662074686520C7
S11300C04952300A0D312E2D4D65617375726520CC
S11300D06F6620746865204952310A0D322E2D4D09
S11300E0656173757265206F662074686520495276
S11300F0320A0D332E2D4D656173757265206F665E
S113010020746865204952330A0D342E2D4D6561E3
S113011073757265206F6620746865204952340ACD
S11301200A0D6D2E2D5072696E74206D656E750A00
S11301300A0D4F7074696F6E3A20001B63001B5BDD
S1130140314A000A0A0D003A200030200049523496
S113015020004952332000495232200049523120B4
S113016000495230200052656164696E67200000C6
S113017001000006021200020000C3014300030054
S113018000BF010401030904AB011202030904A323
S113019001060303090499010808033400310030FF
S11301A000000006034D003200000012034A002E36
S11301B00020004600690065006E00650000000430
S11301C003090409024300020100C03209040000CB
S11301D001020201000524001001052401010104AB
S11301E024020605240600010705820310004009C5
S11301F0040100020A000000070503024000000792
S11302000584024000001201000202000010C01622
S11302107A040001010203010001C11201803601C8
S1130220813611241FBECFEFDAE0DEBFCDBF11E06F
S1130230A0E0B1E0E6E6F9E002C005900D92A83036
S1130240B107D9F721E0A8E0B1E001C01D92AC30BC
S1130250B207E1F70E9453010C94B1040C9400001E
S11302608F70806480937C0087ED80937A00EAE746
S1130270F0E0808184FFFDCFEAE7F0E080818061D7
S11302808083809178009091790008958EE391E0C5
S11302900E9428048BE391E00E9428048CEA90E0F9
S11302A00E94280408950E94C0010E94D901882355
S11302B0E1F30E94460100E010E00E94FA01882365
S11302C0E1F30E94DC01C82F8D3609F452C086E6A2
S11302D091E00E942804C233F9F028F4C03341F0BD
S11302E0C13381F037C0C33309F1C43349F132C09B
S11302F087E00E943001D82FC92F81E691E00E9447
S113030028042EC086E00E943001D82FC92F8CE526
S113031091E00E94280424C085E00E943001D82F77
S1130320C92F87E591E00E9428041AC084E00E9446
S11303303001D82FC92F82E591E00E94280410C013
S113034081E00E943001D82FC92F8DE491E00E94F2
S1130350280406C08AE491E00E942804D02FC12F0B
S113036087E491E00E9428048D2F9C2F0E9444046E
S113037002C00E94460183E491E00E9428049DCFBC
S113038081E08093D70080EA8093D80082E189BD20
S113039009B400FEFDCF80E98093D8001092E000FC
S11303A010920B01109208018CE08093E200789483
S11303B0089580910B0108959FB7F89480910B01E3
S11303C0811103C09FBF8FEF089583E08093E900FC
S11303D08091E80085FD03C09FBF8FEF0895809151
S11303E0F1002091E80025FD03C02BE62093E800EE
S11303F09FBF08959FB7F89480910B01882331F033
S113040083E08093E9008091F20001C080E09FBF07
S11304100895CF93DF9390910B01992309F44CC075
S11304209FB7F89424E02093E90020910901222346
S113043049F02091E80025FD03C09FBF8FEF41C024
S1130440109209013091E400375E2091E80025FD07
S113045024C09FBF9091E400391781F090910B0163
S1130460992361F1A9EEB0E044E0E8EEF0E0C4EED7
S1130470D0E00DC09FBF9881391305C081E08093FF
S113048009018FEF1EC090910B019923C9F09FB70A
S1130490F8944C93208125FFEDCF8093F100809157
S11304A0E80085FD03C08AE38093E80085E080933B
S11304B00A019FBF80E005C08FEF03C08FEF01C02A
S11304C08FEFDF91CF9108951F920F920FB60F9285
S11304D011248F939F93EF93FF93E1EEF0E08081DB
S11304E0108283FF11C01092E90091E09093EB0019
S11304F01092EC0092E19093ED0098E09093F0005C
S113050010920B011092080182FF13C080910B011D
S1130510882379F080910A01882359F081508093CF
S11305200A01811106C084E08093E9008AE3809384
S1130530E800FF91EF919F918F910F900FBE0F9064
S11305401F9018951F920F920FB60F9211240F93BC
S11305501F932F933F934F935F936F937F938F9347
S11305609F93AF93BF93CF93DF93EF93FF93109237
S1130570E9008091E80083FF4FC1E1EFF0E0A08142
S113058080812081908130E0392B4081908150E03E
S1130590BA01792BC081D08192EF9093E800863024
S11305A009F059C004C081E28093EB003CC14FE6DE
S11305B051E009E911E0CA01FA01A591B4912A17A1
S11305C03B0709F5FA013296A591B4916A177B07A6
S11305D0D1F4FA01349645915491FC013696249154
S11305E08C2F90E09D2B8F3F910519F010F08FEF29
S11305F090E0821708F4282FA8EEB0E070E16EEFC7
S1130600C1EFD0E006C0495F5F4F4017510799F62C
S1130610CACF8C91982F9570E1F382FD04C1322FDB
S1130620213108F0372F332309F4FAC0FA01832F5C
S113063094919883815031968111FACF8FEF830F73
S113064090E00196480F591F231B6C932111E1CFB1
S11306503031F9F2E8C0853061F48EEF8093E80020
S1130660E8EEF0E0808180FFFDCF20682093E30076
S1130670DAC0893009F035C0A111CEC020930B0136
S11306801092080110920A018EEF8093E80081E035
S113069028E132E0C9EED0E0ABEEB0E00CEE10E0C1
S11306A06DEE70E08883A9014F5F5F4FF90194916B
S11306B09C93992361F0FA014491F8014083F90174
S11306C0329694912D5F3F4FFB01908301C09A01B4
S11306D08F5F853039F7EAEEF0E08EE18083108297
S11306E0A2C0883081F4A03809F096C0E8EEF0E0AA
S11306F0808180FFFDCF80910B018093F1008EEF0C
S11307008093E80090C08132B9F4A13A09F084C022
S1130710E8EEF0E0808180FFFDCFE0E0F1E027E04B
S113072031E0A1EFB0E081918C932E173F07D9F708
S11307308EEF8093E80077C08032D1F4A13209F0C3
S11307406BC0E8EEF0E0808182FFFDCFE0E0F1E0F5
S113075027E031E0A1EFB0E08C9181932E173F07A1
S1130760D9F7E8EEF0E08BEF80838EEF80835BC0F7
S1130770823271F4A13209F04FC020930801E8EEEF
S1130780F0E0808180FFFDCF8EEF8093E8004BC0C6
S113079081111AC0E8EEF0E0808180FFFDCFA2381D
S11307A051F4E9EEF0E060838091EB0085FB88274B
S11307B080F9108201C080E0E1EFF0E080831082D4
S11307C08EEF8093E8002FC0982F9D7F913021F504
S11307D0A23011F5232B01F5462F4F779FEF940F8D
S11307E09430D0F49EEF9093E8004093E900833076
S11307F021F481E28093EB0016C089E18093EB0041
S113080081E090E002C0880F991F4A95E2F7EAEE72
S1130810F0E08083108207C081E28093EB0003C084
S11308206C932111F6CEFF91EF91DF91CF91BF919F
S1130830AF919F918F917F916F915F914F913F9174
S11308402F911F910F910F900FBE0F901F9018952D
S11308500F931F93CF938C010F5F1F4FFC01C49123
S1130860CC2371F0CA3019F48DE00E9409028C2F58
S11308700E940902F801C4910F5F1F4FC111F2CF0A
S1130880CF911F910F910895EF92FF920F931F93B1
S1130890CF93DF9300D000D000D0CDB7DEB78E0168
S11308A00F5F1F4F26E0F80111922A95E9F74AE0FD
S11308B0B8010E9487047E01F6E0EF0EF11CF801F6
S11308C081918F0181110E9409020E151F05B9F74C
S11308D026960FB6F894DEBF0FBECDBFDF91CF9141
S11308E01F910F91FF90EF9008951F920F920FB6F2
S11308F00F9211248F939F9395B184E0892785B932
S11309009F918F910F900FBE0F901F901895BB274A
S1130910FB015527AA27880F991FAA1FA41710F0B7
S1130920A41B83955051B9F7A05DAA3308F0A95DC3
S1130930A193009779F7B111B1931192CB010C9463
S1130940A104DC01FC01672F71917723E1F7329751
S113095004C07C916D9370836291AE17BF07C8F396
S10909600895F894FFCF96
S10B096600E10000000008009C
S9030000FC
