:100000000C9434000C9449000C9449000C94490061
:100010000C9449000C9449000C9449000C9449003C
:100020000C9449000C9449000C9449000C9449002C
:100030000C9449000C9449000C9449000C9449001C
:100040000C9449000C9449000C9449000C9449000C
:100050000C9449000C9449000C9449000C944900FC
:100060000C9449000C94490011241FBECFEFD8E036
:10007000DEBFCDBF11E0A0E0B1E0E4EFF1E002C0EF
:1000800005900D92A630B107D9F70E946D000C942F
:10009000F8000C94000080E480937C008FEC809347
:1000A0007A000895ACE7B0E01C92EAE7F0E0108235
:1000B0008F7080648C9387E88083808180648083E4
:1000C000808184FFFDCFEAE7F0E08081806180835A
:1000D00080917800909179000895CF93DF93CDB708
:1000E000DEB72A970FB6F894DEBF0FBECDBF84B13E
:1000F000816284B985B18E7D85B952985A9A0E94E1
:100100004B0087E690E00E94A30081E00E9452002D
:100110004AE0BE016F5F7F4F0E94CE0080E091E019
:100120000E94BF00CE0101960E94BF008DE00E9498
:10013000B7002FEF89E698E1215080409040E1F729
:1001400000C00000E2CF9093C5008093C400E0ECB3
:10015000F0E080818D7F8083E1ECF0E08081886138
:100160008083E2ECF0E08081866080830895E0EC9B
:10017000F0E0908195FFFDCF8093C6000895CF9366
:10018000DF93EC018881882331F021960E94B7002B
:1001900089918111FBCFDF91CF910895BB27FB019E
:1001A0005527AA27880F991FAA1FA41710F0A41B70
:1001B00083955051B9F7A05DAA3308F0A95DA193CA
:1001C000009779F7B111B1931192CB010C94E8002B
:1001D000DC01FC01672F71917723E1F7329704C0AE
:1001E0007C916D9370836291AE17BF07C8F3089539
:0401F000F894FFCFB1
:0601F400202020200D0078
:00000001FF
