:100000000C9434000C943E000C943E000C943E0082
:100010000C943E000C943E000C943E000C943E0068
:100020000C943E000C943E000C943E000C943E0058
:100030000C943E000C943E000C9440000C943E0046
:100040000C943E000C943E000C943E000C943E0038
:100050000C943E000C943E000C943E000C943E0028
:100060000C943E000C943E0011241FBECFEFD8E04C
:10007000DEBFCDBF0E9461000C9468000C940000AC
:100080001F920F920FB60F9211248F939F9395B1E9
:1000900084E0892785B99F918F910F900FBE0F90B3
:1000A0001F90189584B5826084BD85B5836085BD39
:1000B00089EF87BD0895EEE6F0E08081826080835D
:1000C0000895229A0E9452000E945B007894FFCF0C
:0400D000F894FFCFD2
:00000001FF
