:100000000C9434000C9446000C9446000C9446006A
:100010000C9446000C9446000C9446000C94460048
:100020000C9446000C9446000C9446000C94460038
:100030000C9446000C9446000C9446000C94460028
:100040000C9448000C9446000C9446000C94460016
:100050000C9446000C9446000C9446000C94460008
:100060000C9446000C94460011241FBECFEFD8E03C
:10007000DEBFCDBF21E0A0E0B1E001C01D92A13004
:10008000B207E1F70E9479000C9480000C94000004
:100090001F920F920FB60F9211248F939F9380910E
:1000A0000001803138F095B180E2892785B910923E
:1000B00000010DC08F3041F48DEB86BD80910001B1
:1000C0008F5F8093000103C08F5F809300019F9139
:1000D0008F910F900FBE0F901F90189585B585607A
:1000E00085BD16BC0895EEE6F0E0808181608083D6
:1000F0000895259A0E946E000E9473007894FFCFA5
:04010000F894FFCFA1
:00000001FF
