:100000000C9434000C945E000C9446000C94460052
:100010000C9446000C9446000C9446000C94460048
:100020000C9446000C9446000C9446000C94460038
:100030000C9446000C9446000C9446000C94460028
:100040000C9446000C9446000C9446000C94460018
:100050000C9446000C9448000C9446000C94460006
:100060000C9446000C94460011241FBECFEFD8E03C
:10007000DEBFCDBF21E0A0E0B1E001C01D92A43001
:10008000B207E1F70E947F000C94B3000C940000CB
:100090001F920F920FB60F9211248F939F9380910E
:1000A00078009091790090930301809302019F91D1
:1000B0008F910F900FBE0F901F9018951F920F9267
:1000C0000FB60F9211248F939F938091000190910E
:1000D00001018C599F4F9093010180930001809101
:1000E00000019091010193709093010180930001B0
:1000F0009F918F910F900FBE0F901F9018951092A7
:1001000003011092020180E092E09093010180933C
:10011000000184B18F6084B985B1807F85B9529820
:100120005A9AE9E6F0E0808182608083E89A81E46F
:1001300080937C008FEC80937A007894EAE7F0E07B
:100140004FE080818064808320910201309103011F
:1001500080910001909101012817390710F045B9ED
:0A016000F0CF15B8EECFF894FFCFF2
:00000001FF
