:100000000C9434000C943E000C943E000C943E0082
:100010000C943E000C943E000C943E000C943E0068
:100020000C943E000C943E000C943E000C943E0058
:100030000C943E000C943E000C943E000C943E0048
:100040000C943E000C943E000C943E000C943E0038
:100050000C943E000C943E000C943E000C943E0028
:100060000C943E000C943E0011241FBECFEFD8E04C
:10007000DEBFCDBF0E944B000C946A000C940000C0
:10008000559A089516BC84B5896A84BD089585B5CE
:10009000816085BD08950E9440000E9442000E9438
:1000A000470091E080E831E040E088BD992311F0FD
:1000B0008F5F01C081502FEF280F2E3F20F0232F9C
:1000C0009111242F922FEFE3FCE93197F1F700C053
:0800D0000000EBCFF894FFCF14
:00000001FF
