S01200004443455F5030365F30322E7372656370
S11300000C9434000C943E000C943E000C943E007E
S11300100C943E000C943E000C943E000C943E0064
S11300200C943E000C943E000C943E000C943E0054
S11300300C943E000C9440000C943E000C943E0042
S11300400C943E000C943E000C943E000C943E0034
S11300500C943E000C943E000C943E000C943E0024
S11300600C943E000C943E0011241FBECFEFD8E048
S1130070DEBFCDBF0E9468000C946F000C9400009A
S11300801F920F920FB60F9211248F939F9395B1E5
S113009084E0892785B98BE791EE9093850080935E
S11300A084009F918F910F900FBE0F901F90189511
S11300B0E1E8F0E0808185608083109285001092F1
S11300C084000895EFE6F0E08081816080830895E4
S11300D0229A0E9458000E9462007894FFCFF894FC
S10500E0FFCF4C
S9030000FC
